{
    "_format": "hh-sol-artifact-1",
    "contractName": "GameNFT",
    "sourceName": "contracts/GameNFT.sol",
    "abi": [
        {
            "inputs": [
                {
                    "internalType": "string[]",
                    "name": "characterNames",
                    "type": "string[]"
                },
                {
                    "internalType": "string[]",
                    "name": "characterImageURIs",
                    "type": "string[]"
                },
                {
                    "internalType": "uint256[]",
                    "name": "characterHp",
                    "type": "uint256[]"
                },
                {
                    "internalType": "uint256[]",
                    "name": "characterAttackDmg",
                    "type": "uint256[]"
                },
                {
                    "internalType": "string[]",
                    "name": "specialElement",
                    "type": "string[]"
                },
                {
                    "internalType": "string",
                    "name": "bossName",
                    "type": "string"
                },
                {
                    "internalType": "string",
                    "name": "bossImageURI",
                    "type": "string"
                },
                {
                    "internalType": "uint256",
                    "name": "bossHp",
                    "type": "uint256"
                },
                {
                    "internalType": "uint256",
                    "name": "bossAttackDamage",
                    "type": "uint256"
                }
            ],
            "stateMutability": "nonpayable",
            "type": "constructor"
        },
        {
            "anonymous": false,
            "inputs": [
                {
                    "indexed": true,
                    "internalType": "address",
                    "name": "owner",
                    "type": "address"
                },
                {
                    "indexed": true,
                    "internalType": "address",
                    "name": "approved",
                    "type": "address"
                },
                {
                    "indexed": true,
                    "internalType": "uint256",
                    "name": "tokenId",
                    "type": "uint256"
                }
            ],
            "name": "Approval",
            "type": "event"
        },
        {
            "anonymous": false,
            "inputs": [
                {
                    "indexed": true,
                    "internalType": "address",
                    "name": "owner",
                    "type": "address"
                },
                {
                    "indexed": true,
                    "internalType": "address",
                    "name": "operator",
                    "type": "address"
                },
                {
                    "indexed": false,
                    "internalType": "bool",
                    "name": "approved",
                    "type": "bool"
                }
            ],
            "name": "ApprovalForAll",
            "type": "event"
        },
        {
            "anonymous": false,
            "inputs": [
                {
                    "indexed": false,
                    "internalType": "uint256",
                    "name": "newBossHp",
                    "type": "uint256"
                },
                {
                    "indexed": false,
                    "internalType": "uint256",
                    "name": "newPlayerHp",
                    "type": "uint256"
                }
            ],
            "name": "AttackComplete",
            "type": "event"
        },
        {
            "anonymous": false,
            "inputs": [
                {
                    "indexed": false,
                    "internalType": "address",
                    "name": "sender",
                    "type": "address"
                },
                {
                    "indexed": false,
                    "internalType": "uint256",
                    "name": "tokenId",
                    "type": "uint256"
                },
                {
                    "indexed": false,
                    "internalType": "uint256",
                    "name": "characterIndex",
                    "type": "uint256"
                }
            ],
            "name": "CharacterNFTMinted",
            "type": "event"
        },
        {
            "anonymous": false,
            "inputs": [
                {
                    "indexed": true,
                    "internalType": "address",
                    "name": "from",
                    "type": "address"
                },
                {
                    "indexed": true,
                    "internalType": "address",
                    "name": "to",
                    "type": "address"
                },
                {
                    "indexed": true,
                    "internalType": "uint256",
                    "name": "tokenId",
                    "type": "uint256"
                }
            ],
            "name": "Transfer",
            "type": "event"
        },
        {
            "inputs": [
                {
                    "internalType": "address",
                    "name": "to",
                    "type": "address"
                },
                {
                    "internalType": "uint256",
                    "name": "tokenId",
                    "type": "uint256"
                }
            ],
            "name": "approve",
            "outputs": [],
            "stateMutability": "nonpayable",
            "type": "function"
        },
        {
            "inputs": [],
            "name": "attackBoss",
            "outputs": [],
            "stateMutability": "nonpayable",
            "type": "function"
        },
        {
            "inputs": [
                {
                    "internalType": "address",
                    "name": "owner",
                    "type": "address"
                }
            ],
            "name": "balanceOf",
            "outputs": [
                {
                    "internalType": "uint256",
                    "name": "",
                    "type": "uint256"
                }
            ],
            "stateMutability": "view",
            "type": "function"
        },
        {
            "inputs": [],
            "name": "bigBoss",
            "outputs": [
                {
                    "internalType": "string",
                    "name": "name",
                    "type": "string"
                },
                {
                    "internalType": "string",
                    "name": "imageURI",
                    "type": "string"
                },
                {
                    "internalType": "uint256",
                    "name": "hp",
                    "type": "uint256"
                },
                {
                    "internalType": "uint256",
                    "name": "maxHp",
                    "type": "uint256"
                },
                {
                    "internalType": "uint256",
                    "name": "attackDamage",
                    "type": "uint256"
                }
            ],
            "stateMutability": "view",
            "type": "function"
        },
        {
            "inputs": [],
            "name": "checkIfUserHasNFT",
            "outputs": [
                {
                    "components": [
                        {
                            "internalType": "uint256",
                            "name": "characterIndex",
                            "type": "uint256"
                        },
                        {
                            "internalType": "string",
                            "name": "name",
                            "type": "string"
                        },
                        {
                            "internalType": "string",
                            "name": "imageURI",
                            "type": "string"
                        },
                        {
                            "internalType": "uint256",
                            "name": "hp",
                            "type": "uint256"
                        },
                        {
                            "internalType": "uint256",
                            "name": "maxHp",
                            "type": "uint256"
                        },
                        {
                            "internalType": "uint256",
                            "name": "attackDamage",
                            "type": "uint256"
                        },
                        {
                            "internalType": "string",
                            "name": "special",
                            "type": "string"
                        }
                    ],
                    "internalType": "struct GameNFT.CharacterAttributes",
                    "name": "",
                    "type": "tuple"
                }
            ],
            "stateMutability": "view",
            "type": "function"
        },
        {
            "inputs": [],
            "name": "getAllDefaultCharacters",
            "outputs": [
                {
                    "components": [
                        {
                            "internalType": "uint256",
                            "name": "characterIndex",
                            "type": "uint256"
                        },
                        {
                            "internalType": "string",
                            "name": "name",
                            "type": "string"
                        },
                        {
                            "internalType": "string",
                            "name": "imageURI",
                            "type": "string"
                        },
                        {
                            "internalType": "uint256",
                            "name": "hp",
                            "type": "uint256"
                        },
                        {
                            "internalType": "uint256",
                            "name": "maxHp",
                            "type": "uint256"
                        },
                        {
                            "internalType": "uint256",
                            "name": "attackDamage",
                            "type": "uint256"
                        },
                        {
                            "internalType": "string",
                            "name": "special",
                            "type": "string"
                        }
                    ],
                    "internalType": "struct GameNFT.CharacterAttributes[]",
                    "name": "",
                    "type": "tuple[]"
                }
            ],
            "stateMutability": "view",
            "type": "function"
        },
        {
            "inputs": [
                {
                    "internalType": "uint256",
                    "name": "tokenId",
                    "type": "uint256"
                }
            ],
            "name": "getApproved",
            "outputs": [
                {
                    "internalType": "address",
                    "name": "",
                    "type": "address"
                }
            ],
            "stateMutability": "view",
            "type": "function"
        },
        {
            "inputs": [],
            "name": "getBigBoss",
            "outputs": [
                {
                    "components": [
                        {
                            "internalType": "string",
                            "name": "name",
                            "type": "string"
                        },
                        {
                            "internalType": "string",
                            "name": "imageURI",
                            "type": "string"
                        },
                        {
                            "internalType": "uint256",
                            "name": "hp",
                            "type": "uint256"
                        },
                        {
                            "internalType": "uint256",
                            "name": "maxHp",
                            "type": "uint256"
                        },
                        {
                            "internalType": "uint256",
                            "name": "attackDamage",
                            "type": "uint256"
                        }
                    ],
                    "internalType": "struct GameNFT.BigBoss",
                    "name": "",
                    "type": "tuple"
                }
            ],
            "stateMutability": "view",
            "type": "function"
        },
        {
            "inputs": [
                {
                    "internalType": "address",
                    "name": "owner",
                    "type": "address"
                },
                {
                    "internalType": "address",
                    "name": "operator",
                    "type": "address"
                }
            ],
            "name": "isApprovedForAll",
            "outputs": [
                {
                    "internalType": "bool",
                    "name": "",
                    "type": "bool"
                }
            ],
            "stateMutability": "view",
            "type": "function"
        },
        {
            "inputs": [
                {
                    "internalType": "uint256",
                    "name": "_characterIndex",
                    "type": "uint256"
                }
            ],
            "name": "mintCharacter",
            "outputs": [],
            "stateMutability": "nonpayable",
            "type": "function"
        },
        {
            "inputs": [],
            "name": "name",
            "outputs": [
                {
                    "internalType": "string",
                    "name": "",
                    "type": "string"
                }
            ],
            "stateMutability": "view",
            "type": "function"
        },
        {
            "inputs": [
                {
                    "internalType": "uint256",
                    "name": "",
                    "type": "uint256"
                }
            ],
            "name": "nftHolderAttributes",
            "outputs": [
                {
                    "internalType": "uint256",
                    "name": "characterIndex",
                    "type": "uint256"
                },
                {
                    "internalType": "string",
                    "name": "name",
                    "type": "string"
                },
                {
                    "internalType": "string",
                    "name": "imageURI",
                    "type": "string"
                },
                {
                    "internalType": "uint256",
                    "name": "hp",
                    "type": "uint256"
                },
                {
                    "internalType": "uint256",
                    "name": "maxHp",
                    "type": "uint256"
                },
                {
                    "internalType": "uint256",
                    "name": "attackDamage",
                    "type": "uint256"
                },
                {
                    "internalType": "string",
                    "name": "special",
                    "type": "string"
                }
            ],
            "stateMutability": "view",
            "type": "function"
        },
        {
            "inputs": [
                {
                    "internalType": "address",
                    "name": "",
                    "type": "address"
                }
            ],
            "name": "nftHolders",
            "outputs": [
                {
                    "internalType": "uint256",
                    "name": "",
                    "type": "uint256"
                }
            ],
            "stateMutability": "view",
            "type": "function"
        },
        {
            "inputs": [
                {
                    "internalType": "uint256",
                    "name": "tokenId",
                    "type": "uint256"
                }
            ],
            "name": "ownerOf",
            "outputs": [
                {
                    "internalType": "address",
                    "name": "",
                    "type": "address"
                }
            ],
            "stateMutability": "view",
            "type": "function"
        },
        {
            "inputs": [
                {
                    "internalType": "address",
                    "name": "from",
                    "type": "address"
                },
                {
                    "internalType": "address",
                    "name": "to",
                    "type": "address"
                },
                {
                    "internalType": "uint256",
                    "name": "tokenId",
                    "type": "uint256"
                }
            ],
            "name": "safeTransferFrom",
            "outputs": [],
            "stateMutability": "nonpayable",
            "type": "function"
        },
        {
            "inputs": [
                {
                    "internalType": "address",
                    "name": "from",
                    "type": "address"
                },
                {
                    "internalType": "address",
                    "name": "to",
                    "type": "address"
                },
                {
                    "internalType": "uint256",
                    "name": "tokenId",
                    "type": "uint256"
                },
                {
                    "internalType": "bytes",
                    "name": "_data",
                    "type": "bytes"
                }
            ],
            "name": "safeTransferFrom",
            "outputs": [],
            "stateMutability": "nonpayable",
            "type": "function"
        },
        {
            "inputs": [
                {
                    "internalType": "address",
                    "name": "operator",
                    "type": "address"
                },
                {
                    "internalType": "bool",
                    "name": "approved",
                    "type": "bool"
                }
            ],
            "name": "setApprovalForAll",
            "outputs": [],
            "stateMutability": "nonpayable",
            "type": "function"
        },
        {
            "inputs": [
                {
                    "internalType": "bytes4",
                    "name": "interfaceId",
                    "type": "bytes4"
                }
            ],
            "name": "supportsInterface",
            "outputs": [
                {
                    "internalType": "bool",
                    "name": "",
                    "type": "bool"
                }
            ],
            "stateMutability": "view",
            "type": "function"
        },
        {
            "inputs": [],
            "name": "symbol",
            "outputs": [
                {
                    "internalType": "string",
                    "name": "",
                    "type": "string"
                }
            ],
            "stateMutability": "view",
            "type": "function"
        },
        {
            "inputs": [
                {
                    "internalType": "uint256",
                    "name": "_tokenId",
                    "type": "uint256"
                }
            ],
            "name": "tokenURI",
            "outputs": [
                {
                    "internalType": "string",
                    "name": "",
                    "type": "string"
                }
            ],
            "stateMutability": "view",
            "type": "function"
        },
        {
            "inputs": [
                {
                    "internalType": "address",
                    "name": "from",
                    "type": "address"
                },
                {
                    "internalType": "address",
                    "name": "to",
                    "type": "address"
                },
                {
                    "internalType": "uint256",
                    "name": "tokenId",
                    "type": "uint256"
                }
            ],
            "name": "transferFrom",
            "outputs": [],
            "stateMutability": "nonpayable",
            "type": "function"
        }
    ],
    "bytecode": "0x60806040523480156200001157600080fd5b5060405162005ce838038062005ce8833981810160405281019062000037919062000b85565b6040518060400160405280600781526020017f4c6567656e6473000000000000000000000000000000000000000000000000008152506040518060400160405280600681526020017f4c4547454e4400000000000000000000000000000000000000000000000000008152508160009080519060200190620000bb929190620008ed565b508060019080519060200190620000d4929190620008ed565b5050506040518060a0016040528085815260200184815260200183815260200183815260200182815250600960008201518160000190805190602001906200011e929190620008ed565b5060208201518160010190805190602001906200013d929190620008ed565b50604082015181600201556060820151816003015560808201518160040155905050620002c06040518060600160405280602a815260200162005cbe602a9139600960000180546200018f9062000eda565b80601f0160208091040260200160405190810160405280929190818152602001828054620001bd9062000eda565b80156200020e5780601f10620001e2576101008083540402835291602001916200020e565b820191906000526020600020905b815481529060010190602001808311620001f057829003601f168201915b5050505050600960020154600960010180546200022b9062000eda565b80601f0160208091040260200160405190810160405280929190818152602001828054620002599062000eda565b8015620002aa5780601f106200027e57610100808354040283529160200191620002aa565b820191906000526020600020905b8154815290600101906020018083116200028c57829003601f168201915b50505050506200080260201b62001ef91760201c565b60005b8951811015620007db5760076040518060e001604052808381526020018c84815181106200031a577f4e487b7100000000000000000000000000000000000000000000000000000000600052603260045260246000fd5b602002602001015181526020018b848151811062000361577f4e487b7100000000000000000000000000000000000000000000000000000000600052603260045260246000fd5b602002602001015181526020018a8481518110620003a8577f4e487b7100000000000000000000000000000000000000000000000000000000600052603260045260246000fd5b602002602001015181526020018a8481518110620003ef577f4e487b7100000000000000000000000000000000000000000000000000000000600052603260045260246000fd5b6020026020010151815260200189848151811062000436577f4e487b7100000000000000000000000000000000000000000000000000000000600052603260045260246000fd5b602002602001015181526020018884815181106200047d577f4e487b7100000000000000000000000000000000000000000000000000000000600052603260045260246000fd5b60200260200101518152509080600181540180825580915050600190039060005260206000209060070201600090919091909150600082015181600001556020820151816001019080519060200190620004d9929190620008ed565b506040820151816002019080519060200190620004f8929190620008ed565b50606082015181600301556080820151816004015560a0820151816005015560c082015181600601908051906020019062000535929190620008ed565b50505060006007828154811062000575577f4e487b7100000000000000000000000000000000000000000000000000000000600052603260045260246000fd5b90600052602060002090600702016040518060e001604052908160008201548152602001600182018054620005aa9062000eda565b80601f0160208091040260200160405190810160405280929190818152602001828054620005d89062000eda565b8015620006295780601f10620005fd5761010080835404028352916020019162000629565b820191906000526020600020905b8154815290600101906020018083116200060b57829003601f168201915b50505050508152602001600282018054620006449062000eda565b80601f0160208091040260200160405190810160405280929190818152602001828054620006729062000eda565b8015620006c35780601f106200069757610100808354040283529160200191620006c3565b820191906000526020600020905b815481529060010190602001808311620006a557829003601f168201915b50505050508152602001600382015481526020016004820154815260200160058201548152602001600682018054620006fc9062000eda565b80601f01602080910402602001604051908101604052809291908181526020018280546200072a9062000eda565b80156200077b5780601f106200074f576101008083540402835291602001916200077b565b820191906000526020600020905b8154815290600101906020018083116200075d57829003601f168201915b5050505050815250509050620007c460405180608001604052806048815260200162005c766048913982602001518360a001518460c001516200080260201b62001ef91760201c565b508080620007d29062000f46565b915050620002c3565b50620007f36006620008ae60201b62001f9b1760201c565b5050505050505050506200104c565b620008a8848484846040516024016200081f949392919062000d5f565b6040516020818303038152906040527f8d142cdd000000000000000000000000000000000000000000000000000000007bffffffffffffffffffffffffffffffffffffffffffffffffffffffff19166020820180517bffffffffffffffffffffffffffffffffffffffffffffffffffffffff8381831617835250505050620008c460201b60201c565b50505050565b6001816000016000828254019250508190555050565b60008151905060006a636f6e736f6c652e6c6f679050602083016000808483855afa5050505050565b828054620008fb9062000eda565b90600052602060002090601f0160209004810192826200091f57600085556200096b565b82601f106200093a57805160ff19168380011785556200096b565b828001600101855582156200096b579182015b828111156200096a5782518255916020019190600101906200094d565b5b5090506200097a91906200097e565b5090565b5b80821115620009995760008160009055506001016200097f565b5090565b6000620009b4620009ae8462000dea565b62000dc1565b90508083825260208201905082856020860282011115620009d457600080fd5b60005b8581101562000a2357815167ffffffffffffffff811115620009f857600080fd5b80860162000a07898262000b41565b85526020850194506020840193505050600181019050620009d7565b5050509392505050565b600062000a4462000a3e8462000e19565b62000dc1565b9050808382526020820190508285602086028201111562000a6457600080fd5b60005b8581101562000a98578162000a7d888262000b6e565b84526020840193506020830192505060018101905062000a67565b5050509392505050565b600062000ab962000ab38462000e48565b62000dc1565b90508281526020810184848401111562000ad257600080fd5b62000adf84828562000ea4565b509392505050565b600082601f83011262000af957600080fd5b815162000b0b8482602086016200099d565b91505092915050565b600082601f83011262000b2657600080fd5b815162000b3884826020860162000a2d565b91505092915050565b600082601f83011262000b5357600080fd5b815162000b6584826020860162000aa2565b91505092915050565b60008151905062000b7f8162001032565b92915050565b60008060008060008060008060006101208a8c03121562000ba557600080fd5b60008a015167ffffffffffffffff81111562000bc057600080fd5b62000bce8c828d0162000ae7565b99505060208a015167ffffffffffffffff81111562000bec57600080fd5b62000bfa8c828d0162000ae7565b98505060408a015167ffffffffffffffff81111562000c1857600080fd5b62000c268c828d0162000b14565b97505060608a015167ffffffffffffffff81111562000c4457600080fd5b62000c528c828d0162000b14565b96505060808a015167ffffffffffffffff81111562000c7057600080fd5b62000c7e8c828d0162000ae7565b95505060a08a015167ffffffffffffffff81111562000c9c57600080fd5b62000caa8c828d0162000b41565b94505060c08a015167ffffffffffffffff81111562000cc857600080fd5b62000cd68c828d0162000b41565b93505060e062000ce98c828d0162000b6e565b92505061010062000cfd8c828d0162000b6e565b9150509295985092959850929598565b600062000d1a8262000e7e565b62000d26818562000e89565b935062000d3881856020860162000ea4565b62000d438162001021565b840191505092915050565b62000d598162000e9a565b82525050565b6000608082019050818103600083015262000d7b818762000d0d565b9050818103602083015262000d91818662000d0d565b905062000da2604083018562000d4e565b818103606083015262000db6818462000d0d565b905095945050505050565b600062000dcd62000de0565b905062000ddb828262000f10565b919050565b6000604051905090565b600067ffffffffffffffff82111562000e085762000e0762000ff2565b5b602082029050602081019050919050565b600067ffffffffffffffff82111562000e375762000e3662000ff2565b5b602082029050602081019050919050565b600067ffffffffffffffff82111562000e665762000e6562000ff2565b5b62000e718262001021565b9050602081019050919050565b600081519050919050565b600082825260208201905092915050565b6000819050919050565b60005b8381101562000ec457808201518184015260208101905062000ea7565b8381111562000ed4576000848401525b50505050565b6000600282049050600182168062000ef357607f821691505b6020821081141562000f0a5762000f0962000fc3565b5b50919050565b62000f1b8262001021565b810181811067ffffffffffffffff8211171562000f3d5762000f3c62000ff2565b5b80604052505050565b600062000f538262000e9a565b91507fffffffffffffffffffffffffffffffffffffffffffffffffffffffffffffffff82141562000f895762000f8862000f94565b5b600182019050919050565b7f4e487b7100000000000000000000000000000000000000000000000000000000600052601160045260246000fd5b7f4e487b7100000000000000000000000000000000000000000000000000000000600052602260045260246000fd5b7f4e487b7100000000000000000000000000000000000000000000000000000000600052604160045260246000fd5b6000601f19601f8301169050919050565b6200103d8162000e9a565b81146200104957600080fd5b50565b614c1a806200105c6000396000f3fe608060405234801561001057600080fd5b50600436106101375760003560e01c806395d89b41116100b8578063b953084e1161007c578063b953084e1461036a578063c87b56dd14610388578063c8cf27f4146103b8578063d4f24c5b146103d6578063e90eb7dc146103e0578063e985e9c5146103fc57610137565b806395d89b41146102bc57806398da4c95146102da578063a22cb46514610310578063a9c326791461032c578063b88d4fde1461034e57610137565b806323b872dd116100ff57806323b872dd146101f457806342842e0e146102105780636352211e1461022c57806370a082311461025c5780637df124a11461028c57610137565b806301ffc9a71461013c5780630665f9611461016c57806306fdde031461018a578063081812fc146101a8578063095ea7b3146101d8575b600080fd5b610156600480360381019061015191906132a8565b61042c565b6040516101639190613b7c565b60405180910390f35b61017461050e565b6040516101819190613ed7565b60405180910390f35b61019261066a565b60405161019f9190613b97565b60405180910390f35b6101c260048036038101906101bd91906132fa565b6106fc565b6040516101cf9190613abc565b60405180910390f35b6101f260048036038101906101ed919061326c565b610781565b005b61020e60048036038101906102099190613166565b610899565b005b61022a60048036038101906102259190613166565b6108f9565b005b610246600480360381019061024191906132fa565b610919565b6040516102539190613abc565b60405180910390f35b61027660048036038101906102719190613101565b6109cb565b6040516102839190613f1b565b60405180910390f35b6102a660048036038101906102a19190613101565b610a83565b6040516102b39190613f1b565b60405180910390f35b6102c4610a9b565b6040516102d19190613b97565b60405180910390f35b6102f460048036038101906102ef91906132fa565b610b2d565b6040516103079796959493929190613f36565b60405180910390f35b61032a60048036038101906103259190613230565b610d07565b005b610334610d1d565b604051610345959493929190613c66565b60405180910390f35b610368600480360381019061036391906131b5565b610e51565b005b610372610eb3565b60405161037f9190613b5a565b60405180910390f35b6103a2600480360381019061039d91906132fa565b6110f0565b6040516103af9190613b97565b60405180910390f35b6103c06113a9565b6040516103cd9190613ef9565b60405180910390f35b6103de611613565b005b6103fa60048036038101906103f591906132fa565b61199e565b005b6104166004803603810190610411919061312a565b611e65565b6040516104239190613b7c565b60405180910390f35b60007f80ac58cd000000000000000000000000000000000000000000000000000000007bffffffffffffffffffffffffffffffffffffffffffffffffffffffff1916827bffffffffffffffffffffffffffffffffffffffffffffffffffffffff191614806104f757507f5b5e139f000000000000000000000000000000000000000000000000000000007bffffffffffffffffffffffffffffffffffffffffffffffffffffffff1916827bffffffffffffffffffffffffffffffffffffffffffffffffffffffff1916145b80610507575061050682611fb1565b5b9050919050565b610516612f21565b60096040518060a001604052908160008201805461053390614291565b80601f016020809104026020016040519081016040528092919081815260200182805461055f90614291565b80156105ac5780601f10610581576101008083540402835291602001916105ac565b820191906000526020600020905b81548152906001019060200180831161058f57829003601f168201915b505050505081526020016001820180546105c590614291565b80601f01602080910402602001604051908101604052809291908181526020018280546105f190614291565b801561063e5780601f106106135761010080835404028352916020019161063e565b820191906000526020600020905b81548152906001019060200180831161062157829003601f168201915b505050505081526020016002820154815260200160038201548152602001600482015481525050905090565b60606000805461067990614291565b80601f01602080910402602001604051908101604052809291908181526020018280546106a590614291565b80156106f25780601f106106c7576101008083540402835291602001916106f2565b820191906000526020600020905b8154815290600101906020018083116106d557829003601f168201915b5050505050905090565b60006107078261201b565b610746576040517f08c379a000000000000000000000000000000000000000000000000000000000815260040161073d90613e57565b60405180910390fd5b6004600083815260200190815260200160002060009054906101000a900473ffffffffffffffffffffffffffffffffffffffff169050919050565b600061078c82610919565b90508073ffffffffffffffffffffffffffffffffffffffff168373ffffffffffffffffffffffffffffffffffffffff1614156107fd576040517f08c379a00000000000000000000000000000000000000000000000000000000081526004016107f490613e97565b60405180910390fd5b8073ffffffffffffffffffffffffffffffffffffffff1661081c612087565b73ffffffffffffffffffffffffffffffffffffffff16148061084b575061084a81610845612087565b611e65565b5b61088a576040517f08c379a000000000000000000000000000000000000000000000000000000000815260040161088190613db7565b60405180910390fd5b610894838361208f565b505050565b6108aa6108a4612087565b82612148565b6108e9576040517f08c379a00000000000000000000000000000000000000000000000000000000081526004016108e090613eb7565b60405180910390fd5b6108f4838383612226565b505050565b61091483838360405180602001604052806000815250610e51565b505050565b6000806002600084815260200190815260200160002060009054906101000a900473ffffffffffffffffffffffffffffffffffffffff169050600073ffffffffffffffffffffffffffffffffffffffff168173ffffffffffffffffffffffffffffffffffffffff1614156109c2576040517f08c379a00000000000000000000000000000000000000000000000000000000081526004016109b990613df7565b60405180910390fd5b80915050919050565b60008073ffffffffffffffffffffffffffffffffffffffff168273ffffffffffffffffffffffffffffffffffffffff161415610a3c576040517f08c379a0000000000000000000000000000000000000000000000000000000008152600401610a3390613dd7565b60405180910390fd5b600360008373ffffffffffffffffffffffffffffffffffffffff1673ffffffffffffffffffffffffffffffffffffffff168152602001908152602001600020549050919050565b600e6020528060005260406000206000915090505481565b606060018054610aaa90614291565b80601f0160208091040260200160405190810160405280929190818152602001828054610ad690614291565b8015610b235780601f10610af857610100808354040283529160200191610b23565b820191906000526020600020905b815481529060010190602001808311610b0657829003601f168201915b5050505050905090565b6008602052806000526040600020600091509050806000015490806001018054610b5690614291565b80601f0160208091040260200160405190810160405280929190818152602001828054610b8290614291565b8015610bcf5780601f10610ba457610100808354040283529160200191610bcf565b820191906000526020600020905b815481529060010190602001808311610bb257829003601f168201915b505050505090806002018054610be490614291565b80601f0160208091040260200160405190810160405280929190818152602001828054610c1090614291565b8015610c5d5780601f10610c3257610100808354040283529160200191610c5d565b820191906000526020600020905b815481529060010190602001808311610c4057829003601f168201915b505050505090806003015490806004015490806005015490806006018054610c8490614291565b80601f0160208091040260200160405190810160405280929190818152602001828054610cb090614291565b8015610cfd5780601f10610cd257610100808354040283529160200191610cfd565b820191906000526020600020905b815481529060010190602001808311610ce057829003601f168201915b5050505050905087565b610d19610d12612087565b8383612482565b5050565b6009806000018054610d2e90614291565b80601f0160208091040260200160405190810160405280929190818152602001828054610d5a90614291565b8015610da75780601f10610d7c57610100808354040283529160200191610da7565b820191906000526020600020905b815481529060010190602001808311610d8a57829003601f168201915b505050505090806001018054610dbc90614291565b80601f0160208091040260200160405190810160405280929190818152602001828054610de890614291565b8015610e355780601f10610e0a57610100808354040283529160200191610e35565b820191906000526020600020905b815481529060010190602001808311610e1857829003601f168201915b5050505050908060020154908060030154908060040154905085565b610e62610e5c612087565b83612148565b610ea1576040517f08c379a0000000000000000000000000000000000000000000000000000000008152600401610e9890613eb7565b60405180910390fd5b610ead848484846125ef565b50505050565b60606007805480602002602001604051908101604052809291908181526020016000905b828210156110e757838290600052602060002090600702016040518060e001604052908160008201548152602001600182018054610f1490614291565b80601f0160208091040260200160405190810160405280929190818152602001828054610f4090614291565b8015610f8d5780601f10610f6257610100808354040283529160200191610f8d565b820191906000526020600020905b815481529060010190602001808311610f7057829003601f168201915b50505050508152602001600282018054610fa690614291565b80601f0160208091040260200160405190810160405280929190818152602001828054610fd290614291565b801561101f5780601f10610ff45761010080835404028352916020019161101f565b820191906000526020600020905b81548152906001019060200180831161100257829003601f168201915b5050505050815260200160038201548152602001600482015481526020016005820154815260200160068201805461105690614291565b80601f016020809104026020016040519081016040528092919081815260200182805461108290614291565b80156110cf5780601f106110a4576101008083540402835291602001916110cf565b820191906000526020600020905b8154815290600101906020018083116110b257829003601f168201915b50505050508152505081526020019060010190610ed7565b50505050905090565b60606000600860008481526020019081526020016000206040518060e00160405290816000820154815260200160018201805461112c90614291565b80601f016020809104026020016040519081016040528092919081815260200182805461115890614291565b80156111a55780601f1061117a576101008083540402835291602001916111a5565b820191906000526020600020905b81548152906001019060200180831161118857829003601f168201915b505050505081526020016002820180546111be90614291565b80601f01602080910402602001604051908101604052809291908181526020018280546111ea90614291565b80156112375780601f1061120c57610100808354040283529160200191611237565b820191906000526020600020905b81548152906001019060200180831161121a57829003601f168201915b5050505050815260200160038201548152602001600482015481526020016005820154815260200160068201805461126e90614291565b80601f016020809104026020016040519081016040528092919081815260200182805461129a90614291565b80156112e75780601f106112bc576101008083540402835291602001916112e7565b820191906000526020600020905b8154815290600101906020018083116112ca57829003601f168201915b50505050508152505090506000611301826060015161264b565b90506000611312836080015161264b565b905060006113238460a0015161264b565b905060008460c001519050600061137486602001516113418a61264b565b88604001518888888860405160200161136097969594939291906139dd565b6040516020818303038152906040526127f8565b90506000816040516020016113899190613a9a565b604051602081830303815290604052905080975050505050505050919050565b6113b1612f50565b6000600e60003373ffffffffffffffffffffffffffffffffffffffff1673ffffffffffffffffffffffffffffffffffffffff168152602001908152602001600020549050600081111561160257600860008281526020019081526020016000206040518060e00160405290816000820154815260200160018201805461143690614291565b80601f016020809104026020016040519081016040528092919081815260200182805461146290614291565b80156114af5780601f10611484576101008083540402835291602001916114af565b820191906000526020600020905b81548152906001019060200180831161149257829003601f168201915b505050505081526020016002820180546114c890614291565b80601f01602080910402602001604051908101604052809291908181526020018280546114f490614291565b80156115415780601f1061151657610100808354040283529160200191611541565b820191906000526020600020905b81548152906001019060200180831161152457829003601f168201915b5050505050815260200160038201548152602001600482015481526020016005820154815260200160068201805461157890614291565b80601f01602080910402602001604051908101604052809291908181526020018280546115a490614291565b80156115f15780601f106115c6576101008083540402835291602001916115f1565b820191906000526020600020905b8154815290600101906020018083116115d457829003601f168201915b505050505081525050915050611610565b61160a612f50565b80925050505b90565b6000600e60003373ffffffffffffffffffffffffffffffffffffffff1673ffffffffffffffffffffffffffffffffffffffff16815260200190815260200160002054905060006008600083815260200190815260200160002090506117266040518060600160405280603c8152602001614ba9603c913982600101805461169990614291565b80601f01602080910402602001604051908101604052809291908181526020018280546116c590614291565b80156117125780601f106116e757610100808354040283529160200191611712565b820191906000526020600020905b8154815290600101906020018083116116f557829003601f168201915b5050505050836003015484600501546129b6565b6117fe6040518060400160405280601b81526020017f426f73732025732068617320257320485020616e6420257320414400000000008152506009600001805461176f90614291565b80601f016020809104026020016040519081016040528092919081815260200182805461179b90614291565b80156117e85780601f106117bd576101008083540402835291602001916117e8565b820191906000526020600020905b8154815290600101906020018083116117cb57829003601f168201915b50505050506009600201546009600401546129b6565b6000816003015411611845576040517f08c379a000000000000000000000000000000000000000000000000000000000815260040161183c90613e17565b60405180910390fd5b60006009600201541161188d576040517f08c379a000000000000000000000000000000000000000000000000000000000815260040161188490613d17565b60405180910390fd5b806005015460096002015410156118ae5760006009600201819055506118cd565b80600501546009600201546118c391906141a7565b6009600201819055505b600960040154816003015410156118ed576000816003018190555061190b565b600960040154816003015461190291906141a7565b81600301819055505b7f838ab28464562786a6c4ab2311964b82fa60bd9b14aa7e856af1f3f18d41a4146009600201548260030154604051611945929190613fba565b60405180910390a1611974604051806060016040528060258152602001614b1c60259139600960020154612a58565b61199a604051806060016040528060288152602001614b81602891398260030154612a58565b5050565b60006119aa6006612af4565b90506119b63382612b02565b6040518060e0016040528083815260200160078481548110611a01577f4e487b7100000000000000000000000000000000000000000000000000000000600052603260045260246000fd5b90600052602060002090600702016001018054611a1d90614291565b80601f0160208091040260200160405190810160405280929190818152602001828054611a4990614291565b8015611a965780601f10611a6b57610100808354040283529160200191611a96565b820191906000526020600020905b815481529060010190602001808311611a7957829003601f168201915b5050505050815260200160078481548110611ada577f4e487b7100000000000000000000000000000000000000000000000000000000600052603260045260246000fd5b90600052602060002090600702016002018054611af690614291565b80601f0160208091040260200160405190810160405280929190818152602001828054611b2290614291565b8015611b6f5780601f10611b4457610100808354040283529160200191611b6f565b820191906000526020600020905b815481529060010190602001808311611b5257829003601f168201915b5050505050815260200160078481548110611bb3577f4e487b7100000000000000000000000000000000000000000000000000000000600052603260045260246000fd5b906000526020600020906007020160030154815260200160078481548110611c04577f4e487b7100000000000000000000000000000000000000000000000000000000600052603260045260246000fd5b906000526020600020906007020160040154815260200160078481548110611c55577f4e487b7100000000000000000000000000000000000000000000000000000000600052603260045260246000fd5b906000526020600020906007020160050154815260200160078481548110611ca6577f4e487b7100000000000000000000000000000000000000000000000000000000600052603260045260246000fd5b90600052602060002090600702016006018054611cc290614291565b80601f0160208091040260200160405190810160405280929190818152602001828054611cee90614291565b8015611d3b5780601f10611d1057610100808354040283529160200191611d3b565b820191906000526020600020905b815481529060010190602001808311611d1e57829003601f168201915b505050505081525060086000838152602001908152602001600020600082015181600001556020820151816001019080519060200190611d7c929190612f8d565b506040820151816002019080519060200190611d99929190612f8d565b50606082015181600301556080820151816004015560a0820151816005015560c0820151816006019080519060200190611dd4929190612f8d565b5090505080600e60003373ffffffffffffffffffffffffffffffffffffffff1673ffffffffffffffffffffffffffffffffffffffff16815260200190815260200160002081905550611e266006611f9b565b7f4bc303fd457a97b4691b9af582ce71868a3d258638c8d4f8c60988a0f0bfb8cd338284604051611e5993929190613b23565b60405180910390a15050565b6000600560008473ffffffffffffffffffffffffffffffffffffffff1673ffffffffffffffffffffffffffffffffffffffff16815260200190815260200160002060008373ffffffffffffffffffffffffffffffffffffffff1673ffffffffffffffffffffffffffffffffffffffff16815260200190815260200160002060009054906101000a900460ff16905092915050565b611f9584848484604051602401611f139493929190613bb9565b6040516020818303038152906040527f8d142cdd000000000000000000000000000000000000000000000000000000007bffffffffffffffffffffffffffffffffffffffffffffffffffffffff19166020820180517bffffffffffffffffffffffffffffffffffffffffffffffffffffffff8381831617835250505050612b20565b50505050565b6001816000016000828254019250508190555050565b60007f01ffc9a7000000000000000000000000000000000000000000000000000000007bffffffffffffffffffffffffffffffffffffffffffffffffffffffff1916827bffffffffffffffffffffffffffffffffffffffffffffffffffffffff1916149050919050565b60008073ffffffffffffffffffffffffffffffffffffffff166002600084815260200190815260200160002060009054906101000a900473ffffffffffffffffffffffffffffffffffffffff1673ffffffffffffffffffffffffffffffffffffffff1614159050919050565b600033905090565b816004600083815260200190815260200160002060006101000a81548173ffffffffffffffffffffffffffffffffffffffff021916908373ffffffffffffffffffffffffffffffffffffffff160217905550808273ffffffffffffffffffffffffffffffffffffffff1661210283610919565b73ffffffffffffffffffffffffffffffffffffffff167f8c5be1e5ebec7d5bd14f71427d1e84f3dd0314c0f7b2291e5b200ac8c7c3b92560405160405180910390a45050565b60006121538261201b565b612192576040517f08c379a000000000000000000000000000000000000000000000000000000000815260040161218990613d97565b60405180910390fd5b600061219d83610919565b90508073ffffffffffffffffffffffffffffffffffffffff168473ffffffffffffffffffffffffffffffffffffffff16148061220c57508373ffffffffffffffffffffffffffffffffffffffff166121f4846106fc565b73ffffffffffffffffffffffffffffffffffffffff16145b8061221d575061221c8185611e65565b5b91505092915050565b8273ffffffffffffffffffffffffffffffffffffffff1661224682610919565b73ffffffffffffffffffffffffffffffffffffffff161461229c576040517f08c379a000000000000000000000000000000000000000000000000000000000815260040161229390613e77565b60405180910390fd5b600073ffffffffffffffffffffffffffffffffffffffff168273ffffffffffffffffffffffffffffffffffffffff16141561230c576040517f08c379a000000000000000000000000000000000000000000000000000000000815260040161230390613d57565b60405180910390fd5b612317838383612b49565b61232260008261208f565b6001600360008573ffffffffffffffffffffffffffffffffffffffff1673ffffffffffffffffffffffffffffffffffffffff168152602001908152602001600020600082825461237291906141a7565b925050819055506001600360008473ffffffffffffffffffffffffffffffffffffffff1673ffffffffffffffffffffffffffffffffffffffff16815260200190815260200160002060008282546123c991906140c6565b92505081905550816002600083815260200190815260200160002060006101000a81548173ffffffffffffffffffffffffffffffffffffffff021916908373ffffffffffffffffffffffffffffffffffffffff160217905550808273ffffffffffffffffffffffffffffffffffffffff168473ffffffffffffffffffffffffffffffffffffffff167fddf252ad1be2c89b69c2b068fc378daa952ba7f163c4a11628f55a4df523b3ef60405160405180910390a4505050565b8173ffffffffffffffffffffffffffffffffffffffff168373ffffffffffffffffffffffffffffffffffffffff1614156124f1576040517f08c379a00000000000000000000000000000000000000000000000000000000081526004016124e890613d77565b60405180910390fd5b80600560008573ffffffffffffffffffffffffffffffffffffffff1673ffffffffffffffffffffffffffffffffffffffff16815260200190815260200160002060008473ffffffffffffffffffffffffffffffffffffffff1673ffffffffffffffffffffffffffffffffffffffff16815260200190815260200160002060006101000a81548160ff0219169083151502179055508173ffffffffffffffffffffffffffffffffffffffff168373ffffffffffffffffffffffffffffffffffffffff167f17307eab39ab6107e8899845ad3d59bd9653f200f220920489ca2b5937696c31836040516125e29190613b7c565b60405180910390a3505050565b6125fa848484612226565b61260684848484612b4e565b612645576040517f08c379a000000000000000000000000000000000000000000000000000000000815260040161263c90613cf7565b60405180910390fd5b50505050565b60606000821415612693576040518060400160405280600181526020017f300000000000000000000000000000000000000000000000000000000000000081525090506127f3565b600082905060005b600082146126c55780806126ae906142f4565b915050600a826126be919061411c565b915061269b565b60008167ffffffffffffffff811115612707577f4e487b7100000000000000000000000000000000000000000000000000000000600052604160045260246000fd5b6040519080825280601f01601f1916602001820160405280156127395781602001600182028036833780820191505090505b5090505b600085146127ec5760018261275291906141a7565b9150600a85612761919061433d565b603061276d91906140c6565b60f81b8183815181106127a9577f4e487b7100000000000000000000000000000000000000000000000000000000600052603260045260246000fd5b60200101907effffffffffffffffffffffffffffffffffffffffffffffffffffffffffffff1916908160001a905350600a856127e5919061411c565b945061273d565b8093505050505b919050565b6060600082519050600081141561282157604051806020016040528060008152509150506129b1565b6000600360028361283291906140c6565b61283c919061411c565b6004612848919061414d565b9050600060208261285991906140c6565b67ffffffffffffffff811115612898577f4e487b7100000000000000000000000000000000000000000000000000000000600052604160045260246000fd5b6040519080825280601f01601f1916602001820160405280156128ca5781602001600182028036833780820191505090505b5090506000604051806060016040528060408152602001614b41604091399050600181016020830160005b8681101561296e5760038101905062ffffff818a015116603f8160121c168401518060081b905060ff603f83600c1c1686015116810190508060081b905060ff603f8360061c1686015116810190508060081b905060ff603f831686015116810190508060e01b905080845260048401935050506128f5565b5060038606600181146129885760028114612998576129a3565b613d3d60f01b60028303526129a3565b603d60f81b60018303525b508484525050819450505050505b919050565b612a52848484846040516024016129d09493929190613c13565b6040516020818303038152906040527fd5cf17d0000000000000000000000000000000000000000000000000000000007bffffffffffffffffffffffffffffffffffffffffffffffffffffffff19166020820180517bffffffffffffffffffffffffffffffffffffffffffffffffffffffff8381831617835250505050612b20565b50505050565b612af08282604051602401612a6e929190613cc7565b6040516020818303038152906040527f9710a9d0000000000000000000000000000000000000000000000000000000007bffffffffffffffffffffffffffffffffffffffffffffffffffffffff19166020820180517bffffffffffffffffffffffffffffffffffffffffffffffffffffffff8381831617835250505050612b20565b5050565b600081600001549050919050565b612b1c828260405180602001604052806000815250612ce5565b5050565b60008151905060006a636f6e736f6c652e6c6f679050602083016000808483855afa5050505050565b505050565b6000612b6f8473ffffffffffffffffffffffffffffffffffffffff16612d40565b15612cd8578373ffffffffffffffffffffffffffffffffffffffff1663150b7a02612b98612087565b8786866040518563ffffffff1660e01b8152600401612bba9493929190613ad7565b602060405180830381600087803b158015612bd457600080fd5b505af1925050508015612c0557506040513d601f19601f82011682018060405250810190612c0291906132d1565b60015b612c88573d8060008114612c35576040519150601f19603f3d011682016040523d82523d6000602084013e612c3a565b606091505b50600081511415612c80576040517f08c379a0000000000000000000000000000000000000000000000000000000008152600401612c7790613cf7565b60405180910390fd5b805181602001fd5b63150b7a0260e01b7bffffffffffffffffffffffffffffffffffffffffffffffffffffffff1916817bffffffffffffffffffffffffffffffffffffffffffffffffffffffff191614915050612cdd565b600190505b949350505050565b612cef8383612d53565b612cfc6000848484612b4e565b612d3b576040517f08c379a0000000000000000000000000000000000000000000000000000000008152600401612d3290613cf7565b60405180910390fd5b505050565b600080823b905060008111915050919050565b600073ffffffffffffffffffffffffffffffffffffffff168273ffffffffffffffffffffffffffffffffffffffff161415612dc3576040517f08c379a0000000000000000000000000000000000000000000000000000000008152600401612dba90613e37565b60405180910390fd5b612dcc8161201b565b15612e0c576040517f08c379a0000000000000000000000000000000000000000000000000000000008152600401612e0390613d37565b60405180910390fd5b612e1860008383612b49565b6001600360008473ffffffffffffffffffffffffffffffffffffffff1673ffffffffffffffffffffffffffffffffffffffff1681526020019081526020016000206000828254612e6891906140c6565b92505081905550816002600083815260200190815260200160002060006101000a81548173ffffffffffffffffffffffffffffffffffffffff021916908373ffffffffffffffffffffffffffffffffffffffff160217905550808273ffffffffffffffffffffffffffffffffffffffff16600073ffffffffffffffffffffffffffffffffffffffff167fddf252ad1be2c89b69c2b068fc378daa952ba7f163c4a11628f55a4df523b3ef60405160405180910390a45050565b6040518060a0016040528060608152602001606081526020016000815260200160008152602001600081525090565b6040518060e00160405280600081526020016060815260200160608152602001600081526020016000815260200160008152602001606081525090565b828054612f9990614291565b90600052602060002090601f016020900481019282612fbb5760008555613002565b82601f10612fd457805160ff1916838001178555613002565b82800160010185558215613002579182015b82811115613001578251825591602001919060010190612fe6565b5b50905061300f9190613013565b5090565b5b8082111561302c576000816000905550600101613014565b5090565b600061304361303e84614008565b613fe3565b90508281526020810184848401111561305b57600080fd5b61306684828561424f565b509392505050565b60008135905061307d81614abf565b92915050565b60008135905061309281614ad6565b92915050565b6000813590506130a781614aed565b92915050565b6000815190506130bc81614aed565b92915050565b600082601f8301126130d357600080fd5b81356130e3848260208601613030565b91505092915050565b6000813590506130fb81614b04565b92915050565b60006020828403121561311357600080fd5b60006131218482850161306e565b91505092915050565b6000806040838503121561313d57600080fd5b600061314b8582860161306e565b925050602061315c8582860161306e565b9150509250929050565b60008060006060848603121561317b57600080fd5b60006131898682870161306e565b935050602061319a8682870161306e565b92505060406131ab868287016130ec565b9150509250925092565b600080600080608085870312156131cb57600080fd5b60006131d98782880161306e565b94505060206131ea8782880161306e565b93505060406131fb878288016130ec565b925050606085013567ffffffffffffffff81111561321857600080fd5b613224878288016130c2565b91505092959194509250565b6000806040838503121561324357600080fd5b60006132518582860161306e565b925050602061326285828601613083565b9150509250929050565b6000806040838503121561327f57600080fd5b600061328d8582860161306e565b925050602061329e858286016130ec565b9150509250929050565b6000602082840312156132ba57600080fd5b60006132c884828501613098565b91505092915050565b6000602082840312156132e357600080fd5b60006132f1848285016130ad565b91505092915050565b60006020828403121561330c57600080fd5b600061331a848285016130ec565b91505092915050565b600061332f838361386b565b905092915050565b613340816141db565b82525050565b600061335182614049565b61335b8185614077565b93508360208202850161336d85614039565b8060005b858110156133a9578484038952815161338a8582613323565b94506133958361406a565b925060208a01995050600181019050613371565b50829750879550505050505092915050565b6133c4816141ed565b82525050565b60006133d582614054565b6133df8185614088565b93506133ef81856020860161425e565b6133f88161442a565b840191505092915050565b600061340e8261405f565b6134188185614099565b935061342881856020860161425e565b6134318161442a565b840191505092915050565b60006134478261405f565b61345181856140aa565b935061346181856020860161425e565b61346a8161442a565b840191505092915050565b60006134808261405f565b61348a81856140bb565b935061349a81856020860161425e565b80840191505092915050565b60006134b3600b836140bb565b91506134be8261443b565b600b82019050919050565b60006134d66005836140bb565b91506134e182614464565b600582019050919050565b60006134f96032836140aa565b91506135048261448d565b604082019050919050565b600061351c6063836140bb565b9150613527826144dc565b606382019050919050565b600061353f6028836140aa565b915061354a82614577565b604082019050919050565b6000613562601c836140aa565b915061356d826145c6565b602082019050919050565b6000613585600e836140bb565b9150613590826145ef565b600e82019050919050565b60006135a86024836140aa565b91506135b382614618565b604082019050919050565b60006135cb6019836140aa565b91506135d682614667565b602082019050919050565b60006135ee602c836140aa565b91506135f982614690565b604082019050919050565b60006136116038836140aa565b915061361c826146df565b604082019050919050565b6000613634602a836140aa565b915061363f8261472e565b604082019050919050565b60006136576029836140aa565b91506136628261477d565b604082019050919050565b600061367a602d836140aa565b9150613685826147cc565b604082019050919050565b600061369d6020836140aa565b91506136a88261481b565b602082019050919050565b60006136c0602c836140aa565b91506136cb82614844565b604082019050919050565b60006136e36029836140aa565b91506136ee82614893565b604082019050919050565b6000613706600a836140bb565b9150613711826148e2565b600a82019050919050565b60006137296021836140aa565b91506137348261490b565b604082019050919050565b600061374c601d836140bb565b91506137578261495a565b601d82019050919050565b600061376f6031836140aa565b915061377a82614983565b604082019050919050565b6000613792603d836140bb565b915061379d826149d2565b603d82019050919050565b60006137b5602d836140bb565b91506137c082614a21565b602d82019050919050565b60006137d8602f836140bb565b91506137e382614a70565b602f82019050919050565b600060a083016000830151848203600086015261380b8282613403565b915050602083015184820360208601526138258282613403565b915050604083015161383a60408601826139bf565b50606083015161384d60608601826139bf565b50608083015161386060808601826139bf565b508091505092915050565b600060e08301600083015161388360008601826139bf565b506020830151848203602086015261389b8282613403565b915050604083015184820360408601526138b58282613403565b91505060608301516138ca60608601826139bf565b5060808301516138dd60808601826139bf565b5060a08301516138f060a08601826139bf565b5060c083015184820360c08601526139088282613403565b9150508091505092915050565b600060e08301600083015161392d60008601826139bf565b50602083015184820360208601526139458282613403565b9150506040830151848203604086015261395f8282613403565b915050606083015161397460608601826139bf565b50608083015161398760808601826139bf565b5060a083015161399a60a08601826139bf565b5060c083015184820360c08601526139b28282613403565b9150508091505092915050565b6139c881614245565b82525050565b6139d781614245565b82525050565b60006139e8826136f9565b91506139f4828a613475565b91506139ff826134a6565b9150613a0b8289613475565b9150613a168261350f565b9150613a228288613475565b9150613a2d82613785565b9150613a398287613475565b9150613a4482613578565b9150613a508286613475565b9150613a5b826137a8565b9150613a678285613475565b9150613a72826137cb565b9150613a7e8284613475565b9150613a89826134c9565b915081905098975050505050505050565b6000613aa58261373f565b9150613ab18284613475565b915081905092915050565b6000602082019050613ad16000830184613337565b92915050565b6000608082019050613aec6000830187613337565b613af96020830186613337565b613b0660408301856139ce565b8181036060830152613b1881846133ca565b905095945050505050565b6000606082019050613b386000830186613337565b613b4560208301856139ce565b613b5260408301846139ce565b949350505050565b60006020820190508181036000830152613b748184613346565b905092915050565b6000602082019050613b9160008301846133bb565b92915050565b60006020820190508181036000830152613bb1818461343c565b905092915050565b60006080820190508181036000830152613bd3818761343c565b90508181036020830152613be7818661343c565b9050613bf660408301856139ce565b8181036060830152613c08818461343c565b905095945050505050565b60006080820190508181036000830152613c2d818761343c565b90508181036020830152613c41818661343c565b9050613c5060408301856139ce565b613c5d60608301846139ce565b95945050505050565b600060a0820190508181036000830152613c80818861343c565b90508181036020830152613c94818761343c565b9050613ca360408301866139ce565b613cb060608301856139ce565b613cbd60808301846139ce565b9695505050505050565b60006040820190508181036000830152613ce1818561343c565b9050613cf060208301846139ce565b9392505050565b60006020820190508181036000830152613d10816134ec565b9050919050565b60006020820190508181036000830152613d3081613532565b9050919050565b60006020820190508181036000830152613d5081613555565b9050919050565b60006020820190508181036000830152613d708161359b565b9050919050565b60006020820190508181036000830152613d90816135be565b9050919050565b60006020820190508181036000830152613db0816135e1565b9050919050565b60006020820190508181036000830152613dd081613604565b9050919050565b60006020820190508181036000830152613df081613627565b9050919050565b60006020820190508181036000830152613e108161364a565b9050919050565b60006020820190508181036000830152613e308161366d565b9050919050565b60006020820190508181036000830152613e5081613690565b9050919050565b60006020820190508181036000830152613e70816136b3565b9050919050565b60006020820190508181036000830152613e90816136d6565b9050919050565b60006020820190508181036000830152613eb08161371c565b9050919050565b60006020820190508181036000830152613ed081613762565b9050919050565b60006020820190508181036000830152613ef181846137ee565b905092915050565b60006020820190508181036000830152613f138184613915565b905092915050565b6000602082019050613f3060008301846139ce565b92915050565b600060e082019050613f4b600083018a6139ce565b8181036020830152613f5d818961343c565b90508181036040830152613f71818861343c565b9050613f8060608301876139ce565b613f8d60808301866139ce565b613f9a60a08301856139ce565b81810360c0830152613fac818461343c565b905098975050505050505050565b6000604082019050613fcf60008301856139ce565b613fdc60208301846139ce565b9392505050565b6000613fed613ffe565b9050613ff982826142c3565b919050565b6000604051905090565b600067ffffffffffffffff821115614023576140226143fb565b5b61402c8261442a565b9050602081019050919050565b6000819050602082019050919050565b600081519050919050565b600081519050919050565b600081519050919050565b6000602082019050919050565b600082825260208201905092915050565b600082825260208201905092915050565b600082825260208201905092915050565b600082825260208201905092915050565b600081905092915050565b60006140d182614245565b91506140dc83614245565b9250827fffffffffffffffffffffffffffffffffffffffffffffffffffffffffffffffff038211156141115761411061436e565b5b828201905092915050565b600061412782614245565b915061413283614245565b9250826141425761414161439d565b5b828204905092915050565b600061415882614245565b915061416383614245565b9250817fffffffffffffffffffffffffffffffffffffffffffffffffffffffffffffffff048311821515161561419c5761419b61436e565b5b828202905092915050565b60006141b282614245565b91506141bd83614245565b9250828210156141d0576141cf61436e565b5b828203905092915050565b60006141e682614225565b9050919050565b60008115159050919050565b60007fffffffff0000000000000000000000000000000000000000000000000000000082169050919050565b600073ffffffffffffffffffffffffffffffffffffffff82169050919050565b6000819050919050565b82818337600083830152505050565b60005b8381101561427c578082015181840152602081019050614261565b8381111561428b576000848401525b50505050565b600060028204905060018216806142a957607f821691505b602082108114156142bd576142bc6143cc565b5b50919050565b6142cc8261442a565b810181811067ffffffffffffffff821117156142eb576142ea6143fb565b5b80604052505050565b60006142ff82614245565b91507fffffffffffffffffffffffffffffffffffffffffffffffffffffffffffffffff8214156143325761433161436e565b5b600182019050919050565b600061434882614245565b915061435383614245565b9250826143635761436261439d565b5b828206905092915050565b7f4e487b7100000000000000000000000000000000000000000000000000000000600052601160045260246000fd5b7f4e487b7100000000000000000000000000000000000000000000000000000000600052601260045260246000fd5b7f4e487b7100000000000000000000000000000000000000000000000000000000600052602260045260246000fd5b7f4e487b7100000000000000000000000000000000000000000000000000000000600052604160045260246000fd5b6000601f19601f8301169050919050565b7f202d2d204e465420233a20000000000000000000000000000000000000000000600082015250565b7f227d205d7d000000000000000000000000000000000000000000000000000000600082015250565b7f4552433732313a207472616e7366657220746f206e6f6e20455243373231526560008201527f63656976657220696d706c656d656e7465720000000000000000000000000000602082015250565b7f222c20226465736372697074696f6e223a20225468697320697320616e204e4660008201527f542074686174206c6574732070656f706c6520706c617920696e20746865206760208201527f616d65204d6574617665727365204c6567656e647321222c2022696d6167652260408201527f3a20220000000000000000000000000000000000000000000000000000000000606082015250565b7f4572726f723a20626f7373206d757374206861766520485020746f206174746160008201527f636b20626f73732e000000000000000000000000000000000000000000000000602082015250565b7f4552433732313a20746f6b656e20616c7265616479206d696e74656400000000600082015250565b7f2c20226d61785f76616c7565223a000000000000000000000000000000000000600082015250565b7f4552433732313a207472616e7366657220746f20746865207a65726f2061646460008201527f7265737300000000000000000000000000000000000000000000000000000000602082015250565b7f4552433732313a20617070726f766520746f2063616c6c657200000000000000600082015250565b7f4552433732313a206f70657261746f7220717565727920666f72206e6f6e657860008201527f697374656e7420746f6b656e0000000000000000000000000000000000000000602082015250565b7f4552433732313a20617070726f76652063616c6c6572206973206e6f74206f7760008201527f6e6572206e6f7220617070726f76656420666f7220616c6c0000000000000000602082015250565b7f4552433732313a2062616c616e636520717565727920666f7220746865207a6560008201527f726f206164647265737300000000000000000000000000000000000000000000602082015250565b7f4552433732313a206f776e657220717565727920666f72206e6f6e657869737460008201527f656e7420746f6b656e0000000000000000000000000000000000000000000000602082015250565b7f4572726f723a20636861726163746572206d757374206861766520485020746f60008201527f2061747461636b20626f73732e00000000000000000000000000000000000000602082015250565b7f4552433732313a206d696e7420746f20746865207a65726f2061646472657373600082015250565b7f4552433732313a20617070726f76656420717565727920666f72206e6f6e657860008201527f697374656e7420746f6b656e0000000000000000000000000000000000000000602082015250565b7f4552433732313a207472616e73666572206f6620746f6b656e2074686174206960008201527f73206e6f74206f776e0000000000000000000000000000000000000000000000602082015250565b7f7b226e616d65223a202200000000000000000000000000000000000000000000600082015250565b7f4552433732313a20617070726f76616c20746f2063757272656e74206f776e6560008201527f7200000000000000000000000000000000000000000000000000000000000000602082015250565b7f646174613a6170706c69636174696f6e2f6a736f6e3b6261736536342c000000600082015250565b7f4552433732313a207472616e736665722063616c6c6572206973206e6f74206f60008201527f776e6572206e6f7220617070726f766564000000000000000000000000000000602082015250565b7f222c202261747472696275746573223a205b207b202274726169745f7479706560008201527f223a20224865616c746820506f696e7473222c202276616c7565223a20000000602082015250565b7f7d2c207b202274726169745f74797065223a202241747461636b2044616d616760008201527f65222c202276616c7565223a2000000000000000000000000000000000000000602082015250565b7f7d2c207b202274726169745f74797065223a20225370656369616c456c656d6560008201527f6e74222c202276616c7565223a20220000000000000000000000000000000000602082015250565b614ac8816141db565b8114614ad357600080fd5b50565b614adf816141ed565b8114614aea57600080fd5b50565b614af6816141f9565b8114614b0157600080fd5b50565b614b0d81614245565b8114614b1857600080fd5b5056fe506c617965722061747461636b656420626f73732e204e657720626f73732068703a2025734142434445464748494a4b4c4d4e4f505152535455565758595a6162636465666768696a6b6c6d6e6f707172737475767778797a303132333435363738392b2f426f73732061747461636b656420706c617965722e204e657720706c617965722068703a2025730a0a506c6179657220772f206368617261637465722025732061626f757420746f2061747461636b2e2048617320257320485020616e64202573204144a2646970667358221220f89afd6159e4eb3f21ec73264c338210d3a351e8f2d383c69752217ed01b6f2764736f6c63430008040033496e697469616c697a6174696f6e20636f6d706c6574650a2d204e616d653a2025730a2d2041747461636b3a202573200a2d205370656369616c204174747269627574653a202573446f6e6520696e697469616c697a696e6720626f737320257320772f2048502025732c20696d67202573",
    "linkReferences": {},
    "deployedLinkReferences": {}
}